:100DBA003E3E3E3E7375627461736B33202C20464F
:100DCA006C61672073657420746F20300D0A003ED1
:100DDA003E3E3E43616C6C5375625461736B0D0AFF
:100DEA00003E3E3E3E466C61675F53776170283233
:100DFA003030306D7329202C20466C616720736572
:100E0A007420746F20310D0A006C6F676765723A3F
:100E1A00353030306D730D0A006C6F676765723A52
:100E2A00313030306D730D0A006C6F676765723A46
:080E3A003235306D730D0A0022
:100EC3004100140041001A00C10142001C0000440B
:100ED300005000000000420031000042005C0000AE
:100EE30042002F000041004F0341002E004200004A
:100EF30000004100040041000500410006004100DC
:100F0300070041000A0041000D00410010004100AC
:100F13001100410012005B0033FF1356FF1233FF31
:100F23001068FF1310FF0FADFF10C2FF1117FF1062
:080F33000E0000004100130054
:0B11BB00900060EBF0A3EAF0A3E9F065
:1011C600E4FFFE900060E0FBA3E0FAA3E0F98F8263
:1011D6008E831203BB601B900060E0A3E0A3E00FC8
:1011E600EFAC0670010E14F5828C831203BBF599E1
:0211F60080D1A6
:0111F80022D4
:040A6A00AB07AA0626
:100A6E00900083E4F0A3740FF0900083E0FEA3E007
:100A7E002473F58274003EF583E4F0EBAE02781F2A
:100A8E00CEC313CE13D8F9FF900085EEF0A3EFF08E
:100A9E004E600DEBF4FFEAF4FEEF2401FBE43EFAA8
:100AAE00900084E024FFF0900083E034FFF07C009F
:100ABE007D0AAF03AE021203E8ED2430FFE0FCA383
:100ACE00E02473F58274003CF583EFF07C007D0A20
:100ADE00AF03AE021203E8AA06AB07EB4A70C19051
:100AEE000085E07002A3E0601E900084E024FFF019
:100AFE00900083E034FFF0E0FEA3E02473F58274EF
:100B0E00003EF583742DF0900083E0FEA3E0247385
:0A0B1E00F974003EFA7B011211BBCE
:010B280022AA
:06005500A292B392922278
:0700030053B3FB43B40422D8
:10086000A2AF9200C2AF75C7AA75C755439F01A238
:100870000092AF75AF0475A60DE4F5A7A2AF920084
:10088000C2AF75C7AA75C75543A401A20092AFAD08
:10089000AEED54F0900060F0ED540FFD75A60CE441
:1008A000F5A7A2AF9200C2AF75C7AA75C75543A4FA
:1008B00001A20092AFAFAEEF75F010A47C002DFD49
:1008C000EC35F0FCE4120301900016120553E4FF2E
:1008D000FE7D407C40900016E0F8A3E0F9A3E0FA2A
:1008E000A3E0FB120156E4FBFA7980784012025F24
:1008F000900058120553A2AF9200C2AF75C7AA75F7
:10090000C755539FFEA20092AF43E80853E8F8434F
:10091000E10143E13043E20E43A210C2EFD2EE30D8
:10092000EFFD900015E5C3F090001BE5C2F0AFC3EA
:10093000EF75F010A4ADC27C002DFDEC35F0FCE4A9
:10094000120301AB07AA06A905A804E4FFFE7D80F7
:100950007C4512025F900058E0F8A3E0F9A3E0FAAA
:0C096000A3E0FB12015690005412055356
:01096C002268
:050BDF00900063EDF041
:100BE400E4A3F090004FE0602F24FE6003020C7F2A
:100BF400E4900064F0900064E0C39F501420EFFD83
:100C0400E4900031F0A3F0D2EE900064E004F080B0
:100C1400E4E490004FF08063E4900064F09000639B
:100C2400E0FFA3E0C39F503820EFFD900050E0F8B0
:100C3400A3E0F9A3E0FAA3E0FB900031E0FEA3E017
:100C4400FFE4FCFDEB2FFFEA3EFEED39FDEC38FC42
:100C5400900050120553D2EE900064E004F080BD81
:100C6400900050E0FCA3E0FDA3E0FEA3E0FF7803C6
:100C740012054090001CEEF0A3EFF0900050120516
:0D0C84005F0000000090001CE0FEA3E0FFF8
:010C91002240
:1007500090004FE01470030207D7046003020857AB
:1007600020EFFD900050E0F8A3E0F9A3E0FAA3E049
:10077000FB900031E0FEA3E0FFE4FCFDEB2FFFEA7D
:100780003EFEED39FDEC38FC900050120553900010
:1007900000E475F00112043DAFF0FEE4FCFD7B07C0
:1007A000FAF9F8D312052F4003020857E49000002D
:1007B000F0A3F0900050E0FCA3E0FDA3E0FEA3E076
:1007C000FF780312054090001CEEF0A3EFF09000BC
:1007D0004F7401F002085720EFFD900050E0FCA399
:1007E000E0FDA3E0FEA3E0FFC006C00790001CE010
:1007F000FEA3E0FFFBAA06E4D007D006C3EF9BFFF1
:10080000EE9AFEED9400FDEC9400FC900050120571
:1008100053900050E0F8A3E0F9A3E0FAA3E0FB90C6
:100820000031E0FEA3E0FFE4FCFDEB2FFFEA3EFE1B
:10083000ED39FDEC38FC900050120553900050E06B
:10084000FCA3E0FDA3E0FEA3E0FF780312054090C7
:0F085000001CEEF0A3EFF090001CE0FEA3E0FF11
:01085F002276
:10138F0090004F7402F0A312055F00000000E4907C
:06139F00001CF0A3F02287
:10126C00E4FDFCAD07AC06120301900054E0F8A3BA
:10127C00E0F9A3E0FAA3E0FB1201567B007AF079C7
:0D128C007F784512025F12033AAC06AD07F1
:011299002232
:0805C300900063EEF0A3EFF0DD
:1005CB00E4A3F0A3F0A3F0A3F0900054E0FCA3E0AD
:1005DB00FDA3E0FEA3E0FF12033A900069EEF0A347
:1005EB00EFF0E4A3F0A3F0A3F0A3F0A3F0A3F0A328
:1005FB00F0A37464F090002FEEF0A3EFF09000697D
:10060B00E0FEA3E0FF7C107D00120596C006C0073C
:10061B0090002FE0FEA3E0FFFBAA06E4F9F8D00759
:10062B00D00612048F900065EEF0A3EFF090006BF4
:10063B00E0FEA3E0FF7C107D00120596C006C0070C
:10064B0090002FE0FEA3E0FFFBAA06E4F9F8D00729
:10065B00D00612048F900067EEF0A3EFF0900063CA
:10066B00E0FCA3E0FDD39FEC9E500A900067E0FEF8
:10067B00A3E0FF8004AE04AF0590006FEEF0A3EF94
:10068B00F0900065E0FCA3E0FDD39FEC9E5006AE1E
:10069B0004AF05800890006FE0FEA3E0FF90006FB1
:1006AB00EEF0A3EFF0900067E0FCA3E0FDC3EF9D3D
:1006BB00FDEE9CFCE4120301C004C005C006C0079C
:1006CB00900071E0FCA3E0FDE4120301D003D00223
:1006DB00D001D000120156C004C005C006C007905F
:1006EB000067E0FEA3E0FFC3900066E09FFD900073
:1006FB0065E09EFCE4120301A804A905AA06AB075A
:10070B00D007D006D005D00412025FE4FBFA798043
:10071B00783F12006512033A90006DEEF0A3EFF0F4
:10072B00E4FCFD7B64FAF9F8D312052F50067E002A
:10073B007F64800890006DE0FEA3E0FF90006DEEFB
:04074B00F0A3EFF038
:01074F002287
:100B2900E490005FF0A3F0900061F0A3F09000540E
:100B3900E0FCA3E0FDA3E0FEA3E0FF12033A90006E
:100B49002FEEF0A3EFF0E490005CF0A3F07D087FB6
:100B590004120BDF90005FEEF0A3EFF090005CE071
:100B6900FEA3E0FFD3900060E09F90005FE09E50FD
:100B790002800890005FE0FEA3E0FF90005FEEF0C6
:100B8900A3EFF090005FE0FEA3E0FFE4FCFDFB7A39
:100B990010F9F8D312052F50067E107F00800890B7
:100BA900005FE0FEA3E0FF90005FEEF0A3EFF0909E
:100BB900005FE0FEA3E0FF1205C3900061EEF0A321
:100BC900EFF090005FE0FEA3E0FF12126C90005F6F
:050BD900E0FEA3E0FFB7
:010BDE0022F4
:03005B0002116B24
:10116B00C0E0C0F0C083C082C0D075D000C004C046
:10117B0005C006C007C091AFC3EF75F010A4ADC298
:10118B007C002DFFEC35F0A2E713FEEF1325E0FFFB
:10119B00EE33900031F0A3EFF0C2EFD091D007D037
:1011AB0006D005D004D0D0D082D083D0F0D0E0329E
:10096D0090005FEFF012086090005FE0B408004067
:10097D0003020A55900988F82828730209A0020974
:10098D00B50209CD0209E40209FB020A12020A2985
:10099D00020A4053E8F043B38053B47FE4F5F643C5
:1009AD00F60143E101020A5553E8F043E80143AC77
:1009BD000153ADFEE4F5F643F60243E101020A559B
:1009CD0053E8F043E80243B18053B27FE4F5F643B8
:1009DD00F60443E101807153E8F043E80343B1406D
:1009ED0053B2BFE4F5F643F60843E101805A53E8EC
:1009FD00F043E80443B12053B2DFE4F5F643F610BB
:100A0D0043E101804353E8F043E80543B11053B28D
:100A1D00EFE4F5F643F62043E101802C53E8F04373
:100A2D00E80643B10853B2F7E4F5F643F64043E167
:100A3D0001801553E8F043E80743B30253B4FDE4D6
:100A4D00F5F643F68043E10143E13043E20E53A254
:0D0A5D00EFC2EFD2EED2AED2AF12138F2255
:0300230002133491
:10133400C0E0C083C08230980AD20190004EE59983
:10134400F0C298309905200202C299D082D083D08D
:02135400E03285
:100E420090005F12055F0001C20053B1BF53B2BFF1
:100E520075985043878053C4F843C42090005FE0E4
:100E6200F8A3E0F9A3E0FAA3E0FB7F607EE37D163E
:100E72007C0012048FC3E49FFFE49EFE74019DFD7B
:100E8200E49CFC78081205408FC690005FE0F8A34E
:100E9200E0F9A3E0FAA3E0FB7F607EE37D167C002D
:100EA20012048FC3E49FFFE49EFE74019DFDE49C47
:100EB200FCEFE48FC543C408D2ACD2AFD299D202C0
:010EC200220D
:10111700900004E024AF601324FB60212456703C48
:101127009000047451F060347F0122E4900002F0D3
:10113700A3F09000047456F0601D7F012290000315
:10114700E004F07006900002E004F0900002E0B4C2
:1011570003E0A3E0B4E8DB12005580C4E490000488
:03116700F07FFF17
:01116A002262
:10131000900005E02499600F246770109000057418
:1013200067F060087F0122120B2980F0E49000052D
:03133000F07FFF4C
:011333002297
:10002600900006E02484600F247C701B9000067408
:100036007CF060137F01227BFF7A0D79BA1211BB27
:0E00460090002EE054FDF0E4900006F07FFFE5
:010054002289
:1010C200900007E02473601324FA60332493703D88
:1010D200900007748DF060357F012290002EE03081
:1010E200E1047F0180027F00EF60E57BFF7A0D79EA
:0410F200D91211BB43
:1010F6009000077493F060D47F00221200269000BF
:091106005FEFF0F460C6E0FF2287
:07110F00E4900007F07FFFF0
:0111160022B6
:100FAD0090000AE0245F601324FB602124A67049A1
:100FBD0090000A74A1F060417F0122E4900008F0D6
:100FCD00A3F090000A74A6F0601D7F6422900009C2
:100FDD00E004F07006900008E004F0900008E07066
:100FED0004A3E0641470DB90002EE04402F07BFF5C
:100FFD007A0D79EB1211BB80B7E490000AF07FFFF8
:01100D0022C0
:10100E0090000DE02448601324FB602124BD704243
:10101E0090000D74B8F0603A7F0122E490000BF05E
:10102E00A3F090000D74BDF0601D7F642290000C43
:10103E00E004F0700690000BE004F090000BE070FE
:10104E0004A3E0643270DB7BFF7A0E79131211BBBE
:09105E0080BEE490000DF07FFF5C
:011067002266
:10106800900010E0242A601324FB602124DB7042E6
:1010780090001074D6F0603A7F0122E490000EF0E0
:10108800A3F090001074DBF0601D7F642290000FC5
:10109800E004F0700690000EE004F090000EE0709E
:1010A80004A3E0640A70DB7BFF7A0E79231211BB7C
:0910B80080BEE4900010F07FFFFF
:0110C100220C
:10123300900011E0240D601324FD601A24F6702140
:1012430090001174F3F060197F012290001174F67D
:10125300F0600E7FFA227BFF7A0E79331211BB8086
:08126300DFE4900011F07FFFB1
:01126B002260
:10135600900012E024F960042407700D90001274C6
:1013660007F060057F012280F3E4900012F07FFF12
:011376002254
:1012C60090005F7410F090005FE0FFD3940040142C
:1012D600741D2FF582E43400F583E4F090005FE09E
:0412E60014F080E29E
:0112EA0022E1
:100F3C0090001EE0700812135690001EEFF0900007
:100F4C00137401F0900013E0FF75F003A42433F543
:100F5C0082E43400F583E0FBA3E0FAA3E04A4B60A3
:100F6C00CF741E2FF582E43400F583E0702A9000D4
:100F7C0013E075F003A42433F582E43400F583E028
:100F8C00A3E0FAA3E0F9120590900013E0241EF5FB
:100F9C0082E43400F583EFF0900013E004F080A4B9
:010FAC002222
:1011F90090005E7410F090005EE0FFD394004029E7
:10120900741D2FF582E43400F583E0FF6013F46068
:101219001090005EE0241DF582E43400F583E014AB
:09122900F090005EE014F080CDAD
:011232002299
:01000A0022D3
:03000B0002129A44
:10129A00C0E0C083C082C0D075D000C007900014DF
:1012AA00E0F58C90001AE0F58AC28D12000A12113C
:0C12BA00F9D007D0D0D082D083D0E03231
:1012EB00E490005FF0A3F05389F043890190001460
:1012FB0074F8F090001A7430F0758CF8F58AD2A956
:04130B00D2AFD28CFF
:01130F0022BB
:100D2C00E58720E403020DB9A2AF9200C2AF75C7EC
:100D3C00AA75C755439F01A20092AF75A638E4F57A
:100D4C00A775AF04A2AF9200C2AF75C7AA75C755FD
:100D5C0043A401A20092AF85AE0875A639F5A7A2EF
:100D6C00AF9200C2AF75C7AA75C75543A401A200C4
:100D7C0092AF85AE09A2AF9200C2AF75C7AA75C774
:100D8C0055539FFEA20092AF75C7AA75C75585082B
:100D9C008475C7AA75C755850985A2AF9200C2AFE5
:0D0DAC0075C7AA75C755539FFEA20092AFF0
:010DB9002217
:10000E00120D2CE4F5B1F5B2F5B3F5B4F5ACF5ADD2
:03001E00D2AF223C
:1013770012000E120E427F0512096D12000312129F
:08138700EB1212C6120F3C220A
:03000000020C925D
:100C9200787FE4F6D8FD9000007FFF7E03E4F0A3A6
:0A0CA200DFFCDEFA758120020CE78A
:10005E000203A6E86480F8E933E83360110460F027
:10006E00ED33EC337009E8FCE9FDEAFEEBFF220408
:10007E0060DED3EB9FEA9EE99DE8C2E78CF0C2F703
:10008E0095F0400CE8CCF8E9CDF9EACEFAEBCFFBCF
:10009E0012037185D0F05804700320D5B3E80470B4
:1000AE00075002B2D50203B092D5EC0460F7E4CC4F
:1000BE00C0E0C398F8603B94186008400DD0E0FB98
:1000CE00020388E4FBFAC9FC8028E830E406E4C9A0
:1000DE00FBE4CAFCE830E305E4C9CACBFCE85407EC
:1000EE006010F8C3E913F9EA13FAEB13FBEC13FCF7
:1000FE00D8F130F52FC3E49CFCEF9BFFEE9AFEED9A
:10010E0099FDD0E0FBEF4E4D4C701222DB03020343
:10011E00ADEC2CFCEF33FFEE33FEED33FDED30E7AF
:10012E00EB020388EF2BFFEE3AFEED39FDD0E0FB3C
:10013E0050130BBB00030203B0ED13FDEE13FEEFE5
:08014E0013FFEC13FC0203880F
:10015600EC4D6011E8497017ED33EC3304600DE4A3
:10016600FCFFFEFD22E933E8330470F80203A61211
:10017600037158046009E4CC248150062850090212
:1001860003B02840030203ADC0E0EB4A7044B980D7
:1001960006D0E0FB02039CEF4E701CBD8008EBFF0F
:1001A600EAFEE9FD80EBE98DF0A4FEE5F002023FF0
:1001B600E9CDF9EAFEEBFFEF89F0A4FCE5F0CE8984
:1001C600F0A42EFFE435F0CD89F0A42DFEE435F041
:1001D6008067EF4E7005BD80D780C3EF8BF0A4AC6F
:1001E600F0EE8BF0A42CFCE435F0F8EF8AF0A42CAA
:1001F600E5F038FCE433CB8DF0A42CFCE5F03BF8BD
:10020600EE8AF0A42CFCE5F038F8E433CF89F0A4AC
:100216002CFCE5F038CF3400CE89F0A42FFFE5F0B2
:100226003EFEE433C98DF0A42EFEE5F039CD8AF00A
:10023600A42FFFE5F03EFEE43DFD33D0E0FB500782
:100246000BBB000F0203B0EC2CFCEF33FFEE33FECA
:06025600ED33FD020388F8
:10025C000203B0EC5D046005E8590470030203A6C8
:10026C00120371580460F6EC4860F2EC7004FDFE69
:10027C00FF22C860DB2481C85009C3986002500675
:10028C000203AD9850CAF582E9294B4A7005AB823E
:10029C0002039C75F0007C1A7880C3EF9BEE9AEDFC
:1002AC0099400DC3EF9BFFEE9AFEED99FDE842F0ED
:1002BC00DC23ACF0D0E0FFD0E0FED0E0FDAB822040
:1002CC00E7101BEB60BAEC2CFCEF33FFEE33FEEDCA
:1002DC0033FD020388E803F830E705C0F075F00041
:1002EC00EF2FFFEE33FEED33FD40B830E7C280AAAE
:1002FC0075F020800E75F010800575F0087D007E7D
:10030C00007F003392D530D503120521EC33401019
:10031C00EF33FFEE33FEED33FDEC33FCD5F0ED2285
:0E032C00E5F0247EA2D513CC92E7CDCEFF22C1
:10033A00EDD2E7CD33EC3392D524814006E4FFFEBB
:10034A00FDFC22FCE4CFCECDCC24E0501174FF801A
:10035A00EDC3CC13CCCD13CDCE13CECF13CF0470B7
:07036A00F030D5DE02052191
:10037100E9D2E7C933E833F892D5EDD2E7CD33ECD2
:0703810033FC5002B2D5224B
:10038800EC30E7100FBF000C0EBE00080DBD0004D6
:100398000BEB6014A2D5EB13FCED92E7FD2274FF82
:1003A800FCFDFEFF22E480F8A2D574FF13FC7D80DB
:0303B800E480EFEF
:100CAC00021377E493A3F8E493A34003F68001F2D4
:100CBC0008DFF48029E493A3F85407240CC8C33349
:100CCC00C4540F4420C8834004F456800146F6DF18
:100CDC00E4800B0102040810204080900EC3E47ED7
:100CEC00019360BCA3FF543F30E509541FFEE4930D
:100CFC00A360010ECF54C025E060A840B8E493A3D4
:100D0C00FAE493A3F8E493A3C8C582C8CAC583CAFE
:100D1C00F0A3C8C582C8CAC583CADFE9DEE780BEB6
:010F3B0000B5
:1003BB00BB010CE58229F582E5833AF583E02250F7
:1003CB0006E92582F8E622BBFE06E92582F8E22241
:0D03DB00E58229F582E5833AF583E493225B
:1003E800BC000BBE0029EF8DF084FFADF022E4CCF9
:1003F800F875F008EF2FFFEE33FEEC33FCEE9DECC2
:10040800984005FCEE9DFE0FD5F0E9E4CEFD22ED07
:10041800F8F5F0EE8420D21CFEADF075F008EF2F51
:10042800FFED33FD4007985006D5F0F222C398FD42
:050438000FD5F0EA22DF
:10043D00A3F8E0C5F025F0F0E58215827002158372
:06044D00E0C838F0E822CF
:1004530075F008758200EF2FFFEE33FECD33CDCC60
:1004630033CCC58233C5829BED9AEC99E5829840E3
:100473000CF582EE9BFEED9AFDEC99FC0FD5F0D6C0
:10048300E4CEFBE4CDFAE4CCF9A88222B800C1B9EA
:100493000059BA002DEC8BF084CFCECDFCE5F0CB28
:1004A300F97818EF2FFFEE33FEED33FDEC33FCEB61
:1004B30033FB10D703994004EB99FB0FD8E5E4F91C
:1004C300FA227818EF2FFFEE33FEED33FDEC33FC09
:1004D300C933C910D7059BE99A4007EC9BFCE99AFD
:1004E300F90FD8E0E4C9FAE4CCFB2275F010EF2F42
:1004F300FFEE33FEED33FDCC33CCC833C810D70742
:100503009BEC9AE899400AED9BFDEC9AFCE899F87C
:0E0513000FD5F0DAE4CDFBE4CCFAE4C8F9220F
:0E052100C3E49FFFE49EFEE49DFDE49CFC22EB
:10052F00EB9FF5F0EA9E42F0E99D42F0E89C45F022
:01053F002299
:10054000E8600FECC313FCED13FDEE13FEEF13FF99
:03055000D8F122BD
:0C055300ECF0A3EDF0A3EEF0A3EFF0221B
:10055F00A8828583F0D083D0821205761205761299
:10056F000576120576E473E493A3C583C5F0C583BE
:10057F00C8C582C8F0A3C583C5F0C583C8C582C8E6
:01058F002249
:060590008A838982E473F6
:10059600EC8EF0A4CCC5F0CCCDF8EFA4CEC5F02DF2
:1005A600FDE43CFCE8A42EC8C5F03DFDE43CFCEFB0
:0D05B600A4FFE5F028FEE43DFDE43CFC223E
:00000001FF
